:020000040800F2
:1000000000000220152A00084D0700084F070008CD
:1000100051070008530700085507000800000000BA
:10002000000000000000000000000000570700086A
:1000300059070008000000005B0700085D07000882
:10004000652A0008652A0008652A0008652A000854
:10005000652A0008652A0008652A0008652A000844
:10006000652A0008652A0008652A0008652A000834
:10007000652A0008652A0008652A0008652A000824
:10008000652A0008652A0008652A000800000000AB
:10009000000000000000000000000000652A0008C9
:1000A000652A0008652A0008652A0008652A0008F4
:1000B000652A0008652A0008652A0008652A0008E4
:1000C000652A0008652A0008652A0008652A0008D4
:1000D000652A000891190008711800080000000046
:1000E000652A0008652A0008652A0008000000004B
:1000F000000000000000000000000000652A000869
:1001000000000000652A0008652A0008652A00082A
:1001100000000000000000000000000000000000DF
:10012000652A0008652A0008652A0008652A000873
:10013000652A000800000000000000000000000028
:10014000000000000000000000000000652A000818
:10015000652A0008652A0008652A0008652A000843
:10016000652A0008652A0008000000000000000061
:10017000000000000000000000000000000000007F
:1001800000000000652A00080000000000000000D8
:08019000652A0008652A000839
:1001A00010B5054C237833B9044B13B10448AFF3B1
:1001B00000800123237010BD140200200000000005
:1001C0000C49000808B5034B1BB103490348AFF3C2
:1001D000008008BD00000000180200200C49000843
:1001E00010F8012B11F8013B012A28BF9A42F7D0E1
:1001F000D01A7047034613F8012B002AFBD1181AB6
:1002000001387047000000000000000000000000FE
:1002100001F0FF01102A2BDB10F0070F08D010F8B7
:10022000013B013A8B422DD010F0070F42B3F6D1BB
:10023000F0B441EA012141EA014122F007047FF0D4
:1002400000070023F0E80256083C85EA010586EA2B
:10025000010685FA47F5A3FA87F586FA47F6A5FA67
:1002600087F68EB9EED1F0BC01F0FF0102F0070273
:1002700032B110F8013B013A83EA010313B1F8D11E
:100280000020704701387047002D06BF35460338FF
:10029000073815F0010F07D1013015F4807F02BF38
:1002A000013015F4C03F0130F0BC0138704700BF89
:1002B00053B94AB9002908BF00281CBF4FF0FF31CD
:1002C0004FF0FF3000F072B9ADF1080C6DE904CECB
:1002D00000F006F8DDF804E0DDE9022304B0704721
:1002E0002DE9F047089E04468846002B4BD18A42F0
:1002F000154667D9B2FA82F24AB1C2F1200701FA73
:1003000002F320FA07F7954047EA030894404FEAC2
:10031000154E230CB8FBFEF71FFA85FC0EFB178861
:1003200043EA084307FB0CF1994209D9EB1807F19E
:10033000FF3080F01B81994240F21881023F2B442C
:100340005B1AA4B2B3FBFEF00EFB103344EA034485
:1003500000FB0CFCA44509D92C1900F1FF3380F0F7
:100360000781A44540F2048102382C4440EA07404A
:10037000A4EB0C0400271EB1D4400023C6E90043BF
:100380003946BDE8F0878B4209D9002E00F0EB809A
:100390000027C6E9000138463946BDE8F087B3FAC0
:1003A00083F7002F47D18B4202D3824200F2FA80BA
:1003B000841A61EB030301209846002EE0D0C6E9C1
:1003C0000048DDE702B9FFDEB2FA82F2002A40F00F
:1003D0008F80491B4FEA154E1FFA85F80127B1FBA4
:1003E000FEFC230C0EFB1C1143EA014308FB0CF13D
:1003F000994207D9EB180CF1FF3002D2994200F272
:10040000CD808446591AA3B2B1FBFEF00EFB101446
:1004100043EA044408FB00F8A04507D92C1900F171
:10042000FF3302D2A04500F2B6801846A4EB0804C0
:1004300040EA0C409FE7C7F1200CBB4022FA0CFEBB
:100440004EEA030E01FA07F420FA0CF521FA0CF338
:100450004FEA1E482543B3FBF8F92C0C08FB19336F
:100460001FFA8EFA44EA034309FB0AF49C4202FA9B
:1004700007F200FA07F10BD91EEB030309F1FF3075
:1004800080F087809C4240F28480A9F10209734485
:100490001B1BADB2B3FBF8F008FB103345EA034475
:1004A00000FB0AFAA24508D91EEB040400F1FF3351
:1004B0006BD2A24569D90238744440EA0940A0FBD6
:1004C0000289A4EB0A044C45C2464B4654D351D092
:1004D000002E69D0B1EB0A0564EB030404FA0CFCAE
:1004E000FD40FC404CEA0505C6E90054002747E7FB
:1004F000C2F1200320FA03F7954001FA02F021FA35
:1005000003F34FEA154E3843010CB3FBFEF71FFA15
:1005100085F80EFB173341EA034107FB08F38B42D2
:1005200004FA02F407D9691807F1FF3C2FD28B4275
:100530002DD9023F2944CB1A81B2B3FBFEF00EFB4A
:10054000103341EA034100FB08F38B4207D96918D5
:1005500000F1FF3C17D28B4215D902382944C91A41
:1005600040EA07473BE73746304609E70746E7E6F4
:100570001846FBE64145ABD2B8EB020A69EB0E0226
:1005800001381346A4E76046E9E7184695E7674651
:10059000D1E781467CE702382C4447E7ACF1020CF6
:1005A0002B442FE7384608E73746E9E6704700BF97
:1005B00008B500221146252000F0B8FF252000F0E4
:1005C000E9FF00221146262000F0B0FF262000F0AF
:1005D000E1FF08BDFEE7000000B595B000230193E0
:1005E000294A116C41F080511164126C02F0805262
:1005F0000192019A0293254A116841F44041116029
:10060000126802F440420292029A022108910122E9
:100610000B9210220C920E910F9310924FF4C8730C
:10062000119304231293139308A800F0C3F810BB8E
:100630000F23039302230493002305934FF4805266
:1006400006920793032103A800F0D4FAB8B900F08A
:100650007DFB0F4BA3FB0030800900F0A7FF0420B7
:1006600000F0BAFF002211464FF0FF3000F05EFFAD
:1006700015B05DF804FB8E210648FFF7ABFF9C2107
:100680000448FFF7A7FF00BF003802400070004099
:10069000D34D62103449000808B500F0D9FFFFF7C8
:1006A0009BFF01F001F8FFF783FF002001F01CF829
:1006B00002F04EF9002008BD10B582B0002400946D
:1006C000214B5A6C42F480425A645A6C02F48042C4
:1006D0000092009A01941A6C42F080521A641B6CCA
:1006E00003F080530193019B032000F00DFF22468D
:1006F00021466FF00B0000F019FF224621466FF0F3
:100700000A0000F013FF224621466FF0090000F0B6
:100710000DFF224621466FF0040000F007FF22463D
:1007200021466FF0030000F001FF224621466FF0E2
:10073000010000F0FBFE224621464FF0FF3000F0A2
:10074000F5FE02B010BD00BF003802407047FEE762
:10075000FEE7FEE7FEE770477047704708B500F018
:1007600091FF00F04AFF08BD0F49D1F8883043F4EB
:100770007003C1F888300D4B1A6842F001021A600C
:10078000002098601A6822F0847222F480321A6085
:10079000074A5A601A6822F480221A60D8604FF023
:1007A00000638B60704700BF00ED00E0003802403E
:1007B00010300024002800F0BB8170B582B00446E0
:1007C000036813F0010F3BD0A74B9B6803F00C03A9
:1007D000042B2CD0A44B9B6803F00C03082B21D0D6
:1007E0006368B3F5803F4FD0B3F5A02F52D09E4B36
:1007F0001A6822F480321A601A6822F480221A6081
:100800006368002B50D000F049FF0546964B1B68EB
:1008100013F4003F14D100F041FF401B6428F5D9C8
:1008200003208AE1904B5B6813F4800FD8D08E4B85
:100830001B6813F4003F03D06368002B00F07A813B
:10084000236813F0020F55D0874B9B6813F00C0FF1
:100850003ED0854B9B6803F00C03082B33D0E36834
:10086000002B68D0814B01221A6000F017FF05466B
:100870007D4B1B6813F0020F54D100F00FFF401B9B
:100880000228F5D9032058E1774A136843F48033EE
:100890001360B5E7744B1A6842F480221A601A6834
:1008A00042F480321A60ABE700F0F8FE05466E4B6A
:1008B0001B6813F4003FC3D000F0F0FE401B642817
:1008C000F5D9032039E1684B5B6813F4800FC6D17A
:1008D000654B1B6813F0020F04D0E368012B01D0B5
:1008E00001202AE1604A136823F0F803216943EAF2
:1008F000C1031360236813F0080F40D0636963B32A
:100900005B4B01221A6000F0C9FE0546564B5B6F37
:1009100013F0020F33D100F0C1FE401B0228F5D9BD
:1009200003200AE1504A136823F0F803216943EADF
:10093000C1031360DEE74D4B00221A6000F0AEFEEB
:100940000546494B1B6813F0020FD3D000F0A6FEFA
:10095000401B0228F5D90320EFE0454B00221A6026
:1009600000F09CFE0546404B5B6F13F0020F06D073
:1009700000F094FE401B0228F5D90320DDE0236837
:1009800013F0040F79D0384B1B6C13F0805F33D118
:1009900000230193344B1A6C42F080521A641B6C92
:1009A00003F080530193019B0125324B1B6813F424
:1009B000807F23D0A368012B34D0052B38D02A4B5D
:1009C0001A6F22F001021A671A6F22F004021A67E6
:1009D000A368002B36D000F061FE0646224B1B6F49
:1009E00013F0020F48D100F059FE801B41F288330A
:1009F0009842F3D90320A0E00025D6E71D4A1368EA
:100A000043F48073136000F049FE0646194B1B68DF
:100A100013F4807FCED100F041FE801B0228F5D96F
:100A200003208AE0104A136F43F001031367CFE7F6
:100A30000D4B1A6F42F004021A671A6F42F001025E
:100A40001A67C5E700F02AFE0646074B1B6F13F036
:100A5000020F11D000F022FE801B41F28833984231
:100A6000F3D9032069E000BF00380240000047428C
:100A7000800E474200700040E5B9A369002B5BD0AF
:100A8000304A926802F00C02082A58D0022B17D084
:100A90002D4B00221A6000F001FE0446294B1B6812
:100AA00013F0007F42D000F0F9FD001B0228F5D9B9
:100AB000032042E0234A136C23F080531364DCE7E5
:100AC000214B00221A6000F0E9FD05461D4B1B6812
:100AD00013F0007F06D000F0E1FD401B0228F5D99D
:100AE00003202AE0E369226A1343626A43EA82131D
:100AF000A26A5208013A43EA0243E26A43EA026305
:100B0000104A5360104B01221A6000F0C7FD0446E2
:100B10000C4B1B6813F0007F06D100F0BFFD001BDB
:100B20000228F5D9032008E0002006E0002004E0B8
:100B300001207047012000E0002002B070BD0120BC
:100B4000FBE700BF0038024060004742264B9B682D
:100B500003F00C03042B44D0082B01D0234870472A
:100B60002DE9F04B204B5A6802F03F025B6813F40A
:100B7000800F13D01C4B5968C1F3881100231C4807
:100B8000A1FB0001FFF794FB174B5B68C3F3014324
:100B900001335B00B0FBF3F0BDE8F08B124B5B68F8
:100BA000C3F388131E4600275C010025E41A65EB99
:100BB0000705A90141EA9461A001001B61EB050151
:100BC000CB0043EA5073C400A01943EB07018B022A
:100BD00043EA90538402204619460023FFF768FB3E
:100BE000D2E70348704700BF003802400024F400F9
:100BF00040787D01002800F09D8070B504464F4B81
:100C00001B6803F00F038B4209D2CBB24B4A13701F
:100C1000136803F00F038B4201D0012070BD2368DD
:100C200013F0020F17D013F0040F04D0444A936856
:100C300043F4E0539360236813F0080F04D0404A54
:100C4000936843F4604393603D4A936823F0F00354
:100C5000A068034393600D46236813F0010F32D060
:100C60006368012B21D09A1E012A25D9344A1268C3
:100C700012F0020F60D032498A6822F00302134357
:100C80008B6000F00BFD06462D4B9B6803F00C03B8
:100C90006268B3EB820F16D000F000FD801B41F2BA
:100CA00088339842F0D90320B8E7254A126812F435
:100CB000003FE0D10120B1E7214A126812F0007F25
:100CC000D9D10120AAE71D4B1B6803F00F03AB42EB
:100CD00009D9EAB2194B1A701B6803F00F03AB4233
:100CE00001D001209AE7236813F0040F06D0144ABC
:100CF000936823F4E053E1680B439360236813F097
:100D0000080F07D00E4A936823F46043216943EA31
:100D1000C1039360FFF71AFF094B9B68C3F30313EA
:100D2000084AD35CD840084B1860002000F06AFCE9
:100D3000002073E70120704701206FE7003C02406C
:100D4000003802405049000800000020014B18689C
:100D5000704700BF0000002008B5FFF7F7FF044B05
:100D60009B68C3F38223034AD35CD84008BD00BF0D
:100D7000003802406049000808B5FFF7E7FF044B60
:100D80009B68C3F34233034AD35CD84008BD00BF1D
:100D9000003802406049000800230F2B00F2C58094
:100DA000F0B482B039E0042200E00022B2403A43BD
:100DB00002345E4E46F824205D4A1468EA4302EA93
:100DC00004064F6817F4803F01D045EA0406584CEA
:100DD0002660646802EA04064F6817F4003F01D0F9
:100DE00045EA0406524C6660A46802EA04064F68AD
:100DF00017F4801F01D045EA04064D4CA660E46854
:100E000022404E6816F4001F01D045EA0402484C07
:100E1000E26001330F2B00F2858001229A400C68BA
:100E200004EA0205AA42F4D14C68022C01D0122C2B
:100E300010D1DE08083650F826C003F00704A700DA
:100E40000F24BC402CEA040C0C69BC4044EA0C049E
:100E500040F8264004685F000326BE40F64306EAD9
:100E6000040C4C6804F00304BC4044EA0C04046025
:100E70004C6804F1FF3CBCF1010F03D9112C01D0E7
:100E8000122C10D1846806EA040CCC68BC4044EAF9
:100E90000C048460446824EA02024C68C4F3001421
:100EA0009C4014434460C26816408A68BA4032438A
:100EB000C2604A6812F0805FABD0002201921D4AE6
:100EC000546C44F480445464526C02F480420192A5
:100ED000019A9C08A61C154A52F8267003F00302DA
:100EE00096000F22B24027EA0207134A90423FF4CD
:100EF0005CAF02F5806290420ED002F580629042B3
:100F00000CD002F5806290420AD002F580629042D5
:100F10003FF449AF072249E7012247E7022245E7AC
:100F2000032243E702B0F0BC70477047003801402D
:100F3000003C0140003802400000024012B90904A0
:100F400081617047816170474369594041617047D1
:100F50002DE9F843044601680A6922F44052C36847
:100F600013430B610168CA6822F4164222F00C0296
:100F700083680069034360690343E06903431343E3
:100F8000CB6021684A6922F44072A36913434B6124
:100F9000E369B3F5004F60D02368B84A934200F08C
:100FA000148102F58062934200F00F81FFF7D4FEB6
:100FB00000EB800000EB80006568AD00B0FBF5F54C
:100FC000AF4FA7FB05356D092E01FFF7C5FE00EBFE
:100FD000800000EB80006568AD00B0FBF5F9FFF71D
:100FE000BBFE00EB800000EB80006568AD00B0FB4D
:100FF000F5F5A7FB05356D094FF0640808FB15955D
:101000002D013235A7FB05356D0905F0F005354496
:10101000FFF7A2FE00EB800000EB80006668B600E0
:10102000B0FBF6F6FFF798FE00EB800000EB8000C7
:1010300063689B00B0FBF3F0A7FB0030400908FB9E
:1010400010684FEA081808F13208A7FB0837C7F301
:10105000431723682F449F600DE12368874A93421A
:101060005BD002F58062934257D0FFF775FE00EB2C
:10107000800000EB800065686D00B0FBF5F5804FE7
:10108000A7FB05356D092E01FFF766FE00EB80001A
:1010900000EB800065686D00B0FBF5F9FFF75CFEC2
:1010A00000EB800000EB800065686D00B0FBF5F59B
:1010B000A7FB05356D094FF0640808FB1595ED0099
:1010C0003235A7FB05356D096D0005F4F87535441B
:1010D000FFF742FE00EB800000EB800066687600C0
:1010E000B0FBF6F6FFF738FE00EB800000EB800067
:1010F00063685B00B0FBF3F3A7FB03235B0908FB0A
:1011000013684FEAC80808F13208A7FB0837C7F38D
:10111000421723682F449F60ADE0FFF72DFE00EBE0
:10112000800000EB800065686D00B0FBF5F5544F62
:10113000A7FB05356D092E01FFF71EFE00EB8000B1
:1011400000EB800065686D00B0FBF5F9FFF714FE59
:1011500000EB800000EB800065686D00B0FBF5F5EA
:10116000A7FB05356D094FF0640808FB1595ED00E8
:101170003235A7FB05356D096D0005F4F87535446A
:10118000FFF7FAFD00EB800000EB80006668760058
:10119000B0FBF6F6FFF7F0FD00EB800000EB8000FF
:1011A00063685B00B0FBF3F3A7FB03235B0908FB59
:1011B00013684FEAC80808F13208A7FB0837C7F3DD
:1011C000421723682F449F6055E0FFF7D5FD00EBE1
:1011D000800000EB80006568AD00B0FBF5F5284F9E
:1011E000A7FB05356D092E01FFF7C6FD00EB80005A
:1011F00000EB80006568AD00B0FBF5F9FFF7BCFDC2
:1012000000EB800000EB80006568AD00B0FBF5F5F9
:10121000A7FB05356D094FF0640808FB15952D01F6
:101220003235A7FB05356D0905F0F0053544FFF7AC
:10123000A3FD00EB800000EB80006668B600B0FB09
:10124000F6F6FFF799FD00EB800000EB8000636885
:101250009B00B0FBF3F0A7FB0030400908FB1068CF
:101260004FEA081808F13208A7FB0837C7F34317FD
:1012700023682F449F60BDE8F88300BF0010014041
:101280001F85EB512DE9F04105460F46164698465D
:10129000069C2B681B6837EA03030CBF012300235D
:1012A000B3421DD1B4F1FF3FF3D02CB100F0F6F9F9
:1012B000A0EB0800A042ECD92A68D36823F4D073CD
:1012C000D3602A68536923F001035361202385F812
:1012D000393085F83A30002385F83830032000E0B3
:1012E0000020BDE8F08158B310B5044690F83930BD
:1012F0000BB3242384F839302268D36823F40053D5
:10130000D3602046FFF724FE2268136923F490433C
:1013100013612268536923F02A0353612268D3685A
:1013200043F40053D3600020E063202384F8393075
:1013300084F83A3010BD80F8383000F0D7FBD8E799
:10134000012070472DE9F04182B01E4690F83930F7
:10135000DBB2202B55D104460D469046002955D0CE
:10136000002A55D090F83830012B53D0012380F853
:1013700038300023C363212380F8393000F08EF920
:101380000746A4F82480A4F8268010E000963B4687
:10139000002280212046FFF775FF00283CD12B88D2
:1013A0002268C3F3080353602369C3B90235E38C91
:1013B0009BB2B3B1E38C013B9BB2E384A368B3F56A
:1013C000805FE3D000963B46002280212046FFF755
:1013D00059FF18BB2A7823685A600135E7E70135C1
:1013E000E5E700963B46002240212046FFF74AFFF2
:1013F0000346A8B9202284F83920002284F8382036
:1014000000E00223184602B0BDE8F0810123F9E7AD
:101410000123F7E70223F5E70323F3E70323F1E7CB
:101420000323EFE72DE9F04182B01E4690F83A30F1
:10143000DBB2202B5AD104460D469046002959D0E4
:10144000002A59D090F83830012B57D0012380F86A
:1014500038300023C363222380F83A3000F01EF9AD
:101460000746A4F82C80A4F82E801DE000963B4689
:10147000002220212046FFF705FF002840D12369E4
:1014800033B923685B68C3F3080325F8023B0BE01C
:1014900023685B68DBB225F8013B05E023685B68E5
:1014A00003F07F032B700135E38D9BB2BBB1E38D5D
:1014B000013B9BB2E385A368B3F5805FD6D000966D
:1014C0003B46002220212046FFF7DCFED0B92369ED
:1014D000002BE3D123685B682B700135E4E7202300
:1014E00084F83A30002084F8380000E0022002B08E
:1014F000BDE8F0810120FAE70120F8E70220F6E7D5
:101500000320F4E70320F2E7074AD36823F4E063FB
:101510001B041B0C000200F4E060184340F0BF60A5
:1015200040F40030D060704700ED00E030B4174B5D
:10153000DB68C3F30223C3F10704042C28BF04248F
:101540001D1D062D18D9033B4FF0FF3505FA04F495
:1015500021EA0401994005FA03F322EA030319433F
:1015600000280BDB0901C9B200F1604000F56140C1
:1015700080F8001330BC70470023E5E700F00F004F
:101580000901C9B2024B1954F4E700BF00ED00E0B5
:1015900014ED00E000F01F02400901239340024ACD
:1015A00042F82030704700BF00E100E00138B0F1A0
:1015B000807F0AD2064B5860064AF02182F8231039
:1015C0000020986007221A6070470120704700BF12
:1015D00010E000E000ED00E0042805D0054A1368A3
:1015E00023F0040313607047024A136843F00403B6
:1015F0001360704710E000E0704708B5FFF7FCFF8C
:1016000008BD000010B504460E4B18784FF47A73ED
:10161000B3FBF0F30C4A1068B0FBF3F0FFF7C6FF22
:1016200068B90F2C01D901200AE0002221464FF0B1
:10163000FF30FFF77BFF054B1C60002000E001201E
:1016400010BD00BF040000200000002008000020A2
:1016500008B50B4B1A6842F400721A601A6842F41B
:1016600080621A601A6842F480721A600320FFF7E1
:101670004BFF0020FFF7C6FFFFF71EF8002008BD54
:10168000003C0240034A1168034B1B780B44136073
:10169000704700BF780E002004000020014B18683E
:1016A000704700BF780E002000B587B0002300937C
:1016B0000B4A116B41F001011163126B02F0010240
:1016C0000092009A20220192012202920393049335
:1016D00001A90448FFF760FB07B05DF804FB00BFF9
:1016E000003802400000024008B528B9012220213C
:1016F0000448FFF723FC08BD002220210148FFF722
:101700001DFCF8E70000024008B520210148FFF762
:101710001BFC08BD00000240EFF31083036072B6AB
:10172000BFF35F8F7047BFF35F8F036883F3108849
:101730007047000000B3F0B583B0064611B9002031
:1017400003B0F0BD0D4601A8FFF7E6FF0B4801F01E
:10175000FBF8074601A8FFF7E6FF002405E0013487
:10176000A4B23144054801F099F82146BC4201D2A7
:10177000AC42F4D32046E3E7002070473006002057
:1017800000B583B00C4B18604FF480620B490C48D5
:1017900001F054F80B4800F00BF920B900F082F981
:1017A00003B05DF804FB084B00935723074A084930
:1017B000084801F08DFAF3E70C0000203002002009
:1017C0003006002010000020784C0008684900080E
:1017D0009B490008A849000800B583B002A901F898
:1017E000010D044B1B680122034800F069F903B0A6
:1017F0005DF804FB0C0000201000002010B582B042
:1018000000F0D1F8044601210DF10700FFF792FF27
:10181000012809D000F0C7F8001B054B1B6898424F
:10182000F1D34FF0FF3001E09DF8070002B010BD8A
:101830000C00002008B5044801F086F808B9002023
:1018400008BD0120FCE700BF3006002010B582B0C3
:10185000044601A8FFF760FF2146044801F04AF85A
:1018600001A8FFF760FF02B010BD00BF30060020E6
:1018700008B5034B1B685868C0B2FFF7E7FF08BD07
:10188000BC0E002000B3F0B583B0064611B90020AD
:1018900003B0F0BD0D4601A8FFF73EFF0B4801F075
:1018A00053F8074601A8FFF73EFF002405E0013486
:1018B000A4B23144054800F0F1FF2146BC4201D2F8
:1018C000AC42F4D32046E3E700207047C006002076
:1018D00000B583B080221049104800F0AFFF1048D7
:1018E00000F066F868B900F0CFF800F083FA80B134
:1018F0000C4B00935D230C4A0C490D4801F0E8F9AC
:1019000007E0084B00935823074A0849084801F0AC
:10191000DFF903B05DF804FB40060020C00600209C
:1019200020000020784C0008C8490008FB49000846
:10193000A849000808B564230A460146014800F09A
:10194000BFF808BD2000002000B583B001210DF1D3
:101950000700FFF797FF012804D19DF8070003B0A7
:101960005DF804FB4FF0FF30F9E7000010B582B0DE
:10197000044601A8FFF7D0FE2146044800F0BAFF54
:1019800001A8FFF7D0FE02B010BD00BFC0060020C6
:1019900008B5034B1B685868C0B2FFF7E7FF08BDE6
:1019A0007C0E0020704708B5FFF778FE08BD0000E8
:1019B00008B50278C2B92F4B2F4A1A6042685A60A4
:1019C000027A032A16D0042A17D0827ACAB9DA60BA
:1019D000427AE2B91A61027B022A24D0012A2FD06E
:1019E0001ABB08225A6120E0012AE7D1234B244A7E
:1019F0001A60E3E700229A60E7E74FF480529A60AA
:101A0000E3E7012AE4D14FF40052DA60E0E7012A6B
:101A100005D0022ADFD14FF480621A61DBE74FF470
:101A2000C0621A61D7E70C225A61C27A5AB99A6128
:101A30000022DA611846FFF756FCB0B9002008BD55
:101A400004225A61F1E7012A07D0022A09D0032AA9
:101A5000EED14FF440729A61EAE74FF400729A6156
:101A6000E6E74FF480729A61E2E767210548FEF7E6
:101A7000B1FDE3E7BC0E0020004400407C0E0020D6
:101A800000100140084A0008054B1B685A6942F0E3
:101A900001025A61DA6842F49072DA60704700BF5E
:101AA0007C0E0020054B1B685A6942F001025A6106
:101AB000DA6842F49072DA60704700BFBC0E002012
:101AC00008B5007818B1012806D0002008BD92B2F0
:101AD0000448FFF737FCF9E792B20348FFF732FCFE
:101AE000F4E700BFBC0E00207C0E002000B589B0DA
:101AF0000368204A934205D01F4A93421ED009B082
:101B00005DF804FB002301931C4B5A6C42F0100259
:101B10005A645B6C03F010030193019B4FF4C063A4
:101B200003930223049301230593032306930723BE
:101B3000079303A91248FFF72FF9E0E70023029368
:101B40000E4B1A6C42F400321A641B6C03F400331F
:101B50000293029B0C230393022304930123059316
:101B6000032306930723079303A90548FFF714F9F6
:101B7000C5E700BF001001400044004000380240AB
:101B800000000240022809DC10B514464FF0FF3374
:101B900092B20448FFF746FC204610BD4FF0FF30DC
:101BA000704700BF7C0E0020022808DC10B51446E8
:101BB000022392B20348FFF7C5FB204610BD4FF049
:101BC000FF3070477C0E00202DE9F04180460F4623
:101BD00000252C4607E0013405E04146FEF700FBF6
:101BE000D0B101340135312C19DC0E4BD3F820353E
:101BF000AB4210D904F58B730A4A52F8236030685F
:101C00000028E8D0002FE8D03A46414601F0BAF962
:101C10000028E6D100E000263046BDE8F08100262D
:101C2000FAE700BF1007002003780BB900207047C7
:101C300010B50446FEF7DEFA01462046FFF77AFEAD
:101C4000002010BDF0B583B007460D1E02DC002653
:101C5000344618E01E4A294601F0C6F83846FEF719
:101C6000C9FA2D1A0744F2E700921A4A2946384663
:101C700001F0BAF83846FEF7BDFA2D1A07440136CE
:101C8000022E16D00134312C20DC134BD3F8203532
:101C9000B3421BD904F58B730F4A52F82320136803
:101CA000002BEFD0002DEADD5268002ADCD10B4A70
:101CB000DAE7002DE6DD0A4A2946384601F094F8B5
:101CC0003846FEF797FA2D1A0744DBE703B0F0BD5C
:101CD000004B0008244B000810070020784C000837
:101CE000304B000870B506460C46012A11D05D68DD
:101CF0001949284601F01BF9D0B9002C04DD174A18
:101D00002146304601F070F8154B0022C3F8242517
:101D100070BD0029FCDD124BD3F8243533B9114BCB
:101D2000114A2146304601F05FF8F1E70F4BF7E723
:101D30000F49284601F0FBF80028E9D1002C04DC0B
:101D4000074B0122C3F82425E2E70A4A2146304620
:101D500001F04AF8F4E700BFB04A0008B44A0008AE
:101D6000100700207C4A0008844A0008704A0008D6
:101D7000C44A0008C84A000803680BB383680BB361
:101D800010B4124BD3F82045312C0BD800239C42C1
:101D90000CD903F58B720D4951F82220824213D0E1
:101DA0000133F4E701205DF8044B7047074B621CD8
:101DB000C3F8202504F58B7443F824000020F2E7D3
:101DC00001207047012070470020ECE71007002039
:101DD00070B50E460024B44207DA00F10C05FFF797
:101DE000CBFF20B901342846F5E7002070BD012063
:101DF000FCE7000008B54FF4A5620021094800F097
:101E0000B6FE02210848FFF7E3FF28B90346054A5A
:101E100001211160184608BD044800F0CDFF4FF0C5
:101E2000FF33F7E710070020344A00084C4A000847
:101E30000FB470B5C2B046AC54F8046B4FF4807563
:101E40002A46002101A800F092FE41942346324622
:101E5000294601A801F0EAF8002802DD01A8FFF7F1
:101E6000E3FE002042B0BDE8704004B070470000BF
:101E70002DE9F047824688462E48FFF7D9FF4FF0FC
:101E800000094E464D464C4608E03A4649462A4827
:101E9000FFF7CEFF00E0B94601350134312C1EDCDE
:101EA000264BD3F82035AB4219D904F58B73234A5E
:101EB00052F823301F68002FEFD0D8F800203946A1
:101EC000504601F05FF80028E6D10136012EE2D03D
:101ED000022EDAD039461A48FFF7AAFFDCE7012EB6
:101EE00006D0524617491848FFF7A2FFBDE8F08711
:101EF000B9F1000FF5D04846FEF77CF9D8F800306C
:101F0000C41A4F28EDD8224609EB03010AEB03005F
:101F100000F009FED8F800301C44631CC8F80030FB
:101F200020230AF80430D8F8003000220AF80320F1
:101F3000D7E700BFDC4C0008884B000810070020E2
:101F40008C4B0008944B00089C4B00082DE9F04195
:101F500082B0054640220021674800F008FE0026B6
:101F60000196344611E09DF8043013F0020F40F062
:101F7000B68043F004038DF804309DF8043013F06C
:101F8000040F7AD101344F2C77DC22462F192B5DB8
:101F9000202B4CD0222B0FD0002BE4D09DF8043006
:101FA00013F0010FE9D143F001038DF80430524BD7
:101FB00043F826700136E0E7002C05DD631E05EBD3
:101FC0000308EB5C5C2B16D09DF8043003F0030390
:101FD000012BD2D0022B00F08480DBB99DF80430B5
:101FE00043F003038DF8043001322A44424B43F896
:101FF00026200136C1E79DF8043013F0010FE3D02D
:102000003846FEF7F7F8421C3946404600F08BFD93
:10201000013CB2E7032BB0D19DF8043003F0FE037E
:102020006FF341038DF8043000233B70A5E7002CCB
:1020300005DD621E05EB0208AB5C5C2B0ED09DF843
:10204000043003F00303012B97D19DF804306FF3A4
:1020500000038DF8043000233B708EE79DF80430B8
:1020600013F0010FEBD03846FEF7C4F8421C394696
:10207000404600F058FD013C7FE713F0020F32D1DB
:10208000002E34DD1D4BD3F8243513B31A4B1C68D6
:102090002E21204600F069FFF8B1011B2046FFF712
:1020A00093FD074628B3164C4FF480652A4600215D
:1020B000204600F05CFD1348FFF7B6FDBF680E4BED
:1020C000324629462046B8472046FFF7ADFD00209E
:1020D0000AE00C48FFF7ACFED8E70021DEE702205B
:1020E00002E0022000E0022002B0BDE8F081002002
:1020F000FAE70120F8E700BFD00600201007002013
:1021000068070020DC4C0008D8B110B504460D4823
:10211000FFF78EFE03E00C48FFF78AFE01342378B8
:102120005BB100F0C9FC21780844437813F0970FA5
:10213000F1D00648FFF77CFEF0E70548FFF778FE90
:1021400010BD7047504B0008604B00085C4B000806
:10215000684B000810B50446FFF7F6FB002802DBC9
:102160002070012010BD0020FCE7000038B50C46AF
:102170000546F0B9002042E00023137023603EE0E2
:10218000BBB1013B23601E4BD3F824358BB9082229
:1021900011461C48FFF74CFE0BE00022EA54214692
:1021A0002846FFF765FE04E02368013323604F2BC8
:1021B0001BD820682844FFF7CDFF01281ED12368D3
:1021C000EA18E95C0A29F4D00D29D5D00829D7D01E
:1021D0007F29D5D00929E0D0094BD3F82435002B2D
:1021E000E2D10948FFF724FEDEE70848FFF720FEAA
:1021F0000748FFF71DFE0020206000E0002038BDEA
:1022000010070020D84A00085C4B0008E04A00088C
:10221000944B000808B5124B1B68012B00D008BD79
:102220000F48011D0830FFF7A1FF0028F7D00D4926
:102230000D48FDF7D5FF0028F1D00B48FFF786FECB
:10224000012805D0022807D00848FFF7F1FDE6E78E
:102250000548FFF759FFF7E70548FFF7E9FDF3E702
:1022600010070020584A000818070020944B000867
:10227000604A000800B970470EB400B582B004A9E6
:102280000191039800F090FE02B05DF804EB03B0FA
:10229000704700002DE9F04F9DB0074605910023DF
:1022A00002937BE03A445278252A10D02A2A0ED095
:1022B000711C814B25229A55B21C2A205854013595
:1022C00016462A4679197B5DCBB1252BEAD001351C
:1022D000721C794883552B4609780A29F0D1022DC2
:1022E00023DD791911F8031C5B2922D13B4413F833
:1022F000023C5E2BE4D016460123039300E00393D7
:10230000711C6D4A25239355B31C6E20505403361F
:102310004FF0000A02F803A06849694B1878FFF7EC
:10232000A9FFCDF810A0AB466FE01646012303933A
:10233000E6E7164601230393E2E76249604B18780B
:10234000FFF798FF00201DB0BDE8F08F029B3A2BED
:1023500063D11CAA049802EB800343F850AC0AEB4B
:102360000603554A7821D154431C04930AF1010A0B
:1023700053E0E468CCB122684245FAD165684E4921
:102380003144284600F0C0FB0028F2D12A464E49CD
:102390004B4B1878FFF76EFFA36898473B78002BEC
:1023A00000F08780002635468BE74FF0FF33079318
:1023B000039B13B1B9F10A0F11D13F4CA51907AA1C
:1023C0002146284600F044FD3D4B1878CDF80480A6
:1023D000079B00932B4622463C49FFF74BFF079B88
:1023E00043452AD0B9F10A0F05D00AF1020AC6F511
:1023F00000739A455BDB304A32443549304B1878DC
:10240000FFF738FF002304939A46FFF7F7F9B0F17E
:10241000000992DBB9F10A0F98D05FFA89F10291B5
:102420000AF101080AEB0603234AD15406EB08031C
:102430000021D154274B1C689CE75D460024DDF841
:102440001090A1451DDD1CAB03EB840353F8502C09
:10245000121B43F8502C9019411CA8EB0202DFF824
:1024600058A0013A5144504400F05DFB0AEB0602CB
:102470001949134B1878FFF7FDFE013408F1FF38B6
:10248000DFE70D4C2644324613490D4B1878FFF711
:10249000F1FE2A463946204600F045FB00236355ED
:1024A000059A2146304600F013FE2F4476E7C246D7
:1024B000ABE7012047E700BF380C0020C44B000801
:1024C000380E0020CC4B0008DC4B0008E44B000821
:1024D000004C0008440E0020F84B00080FB400B573
:1024E00083B004A951F8040B0191FFF7D3FE03B0A8
:1024F0005DF804EB04B0704770B505460E46102039
:1025000000F0E8FA04462846FDF774FE2060656096
:10251000A660024B1A68E2601C6070BD440E002089
:102520002DE9F041FFF786F98046B8B100272FE08A
:102530002F462DE0E468A4B12268AA42FAD1666869
:102540001B49304600F0E0FA0028F3D13246194921
:10255000194B1878FFF78EFEA36898474046BDE8F0
:10256000F0810237B7F5007F0ADA144B1B68EB1ACB
:10257000134A11680E481844FDF732FE0028D7D1DF
:102580002B460B4A0F490C480078FFF773FE0027D3
:10259000FFF734F9002807DB7D1C054BD8550022D6
:1025A0005A55094B1C68C6E74FF00008D6E700BF34
:1025B000380C0020A84B0008380E00203C0E0020EC
:1025C000400E0020B44B0008440E002070B50446B5
:1025D0000E46FFF7A5FF05460028FAD132462146F0
:1025E000114800F047FD00281BDB00240E4B185D4E
:1025F00028B1FFF7F1F8002813DB0134F6E70024D7
:102600000A4B1B68185D28B1FFF7E6F8002808DBC5
:102610000134F5E7044A0649064B1878FFF72AFE0D
:102620000125284670BD00BF380C0020480E002050
:10263000084C0008380E00200FB400B583B004A980
:1026400051F8040B0191FFF7C1FF03B05DF804EBF3
:1026500004B0704710B51446074A1370074B186052
:10266000074B19600846FDF7C5FD064B186020466C
:10267000FFF786F810BD00BF380E0020480E00207E
:10268000400E00203C0E0020F8B506460F46002400
:10269000FF2C10D056F824502B785BB12846FDF75C
:1026A000A9FD02463946284600F02EFA18B1013439
:1026B000E4B2EDE7FF242046F8BD704710B5164898
:1026C000FFF7BAFF20B31548FFF708FF08B1002451
:1026D00003E04FF0FF301AE00134042C15DC104801
:1026E000FFF7AAFF0028F7D00C48FFF7F7FE0028F5
:1026F000F2D00C48FFF7A0FF0028EDD00748FFF705
:10270000EDFE0028E8D0002001E04FF0FF3010BDC2
:102710004FF0FF30FBE700BF9C4C0008744C0008F2
:10272000A84C0008AC4C000838B500234FF47A726E
:102730000A490B48FFF78EFF0024012C0ADCFFF743
:10274000BDFF054608B10134F7E706490648FFF723
:10275000D3FE01E04FF0FF35284638BDDC4C0008C1
:10276000484C0008D92700084C4C000808B5074819
:10277000FFF762FF30B106490648FFF7AFFE18B118
:10278000034808BD0020FCE70020FAE7584C000889
:102790004C0E0020644C000800B583B00848FFF7D9
:1027A0004BFF18B9002003B05DF804FB01A90548F0
:1027B000FFF794FE08B10198F5E70020F3E700BFAA
:1027C0007C4C0008884C000808B5FFF7A9FE0028DB
:1027D000FBD1FFF71FFD08BD00B587B002A9114866
:1027E000FFF77CFE60B9104B009349230F4A104954
:1027F000104800F06DFAFFF760FF07B05DF804FBCA
:1028000002A90D48FFF740FFFF2802D0AFF3008078
:10281000F3E7054B00934C23044A0549054800F0B3
:1028200057FAE8E7D44C0008784C0008BC4C000884
:10283000F24C0008A84900083000002000B583B021
:1028400068B1034659B152B1501E104211D15860BF
:1028500000209860D860196003B05DF804FB0A4B53
:1028600000930923094A0A490A4800F031FA0A4844
:10287000F2E7054B00930E23044A0549054800F092
:1028800027FA0548E8E700BF784C0008004D00082B
:10289000444D0008A8490008CFE5FFFF10B582B0FD
:1028A00080B1034671B1C0689A68904214D018682C
:1028B0005C682240825C0A709A6801329A6000204B
:1028C00002B010BD054B00932123054A0549064877
:1028D00000F0FEF90548F3E70548F1E7784C0008F9
:1028E000104D0008444D0008A8490008CFE5FFFF3F
:1028F000B9E5FFFF10B582B090B103460068DA6811
:102900005C6822408154DA689968511A586881429B
:1029100001D9101A98600132DA60002002B010BDAF
:10292000044B00933423044A0449054800F0D0F9CD
:102930000448F3E7784C0008204D0008444D000897
:10294000A8490008CFE5FFFFC2688068101A7047E9
:1029500030B587B0FFF726F8FEF7BAFF4FF47A7369
:102960000B221F491F48FFF7ABF806AA7B2342F84A
:10297000043D1D491D4800F06BFA05991C4800F004
:10298000A7F902AA1B491C4800F062FA02A91B48D9
:1029900000F09EF9FFF7C8FE044600903823184A5D
:1029A0001849194800F094F924B1FFF70DFFFEF71C
:1029B000ABFEFAE7FFF7DAFE114D124C00903C2314
:1029C0002A462146114800F083F9FFF7E5FE009002
:1029D0003D232A4621460E4800F07AF9E5E700BF7C
:1029E000544D00087C0E0020604D0008684D000822
:1029F000704D0008844D00088C4D0008984D00086B
:102A0000BC4D0008C84D0008CC4D0008F04D000832
:102A1000104E0008DFF834D0002103E00C4B5B5867
:102A2000435004310B480C4B42189A42F6D30B4AE0
:102A300002E0002342F8043B094B9A42F9D3FDF728
:102A400093FE00F011F8FDF727FE7047000002200A
:102A50000050000800000020140200201402002092
:102A6000000F0020FEE7000070B50D4E0D4CA41BBA
:102A7000A4100025A54209D10B4E0C4C01F046FFD5
:102A8000A41BA4100025A54205D170BD56F8253021
:102A900098470135EEE756F8253098470135F2E7BB
:102AA000F84F0008F84F0008F84F0008FC4F0008E6
:102AB000D0F8EC0070470000044B054A1B681B6A05
:102AC000002B08BF1346D3F8EC00704744000020E9
:102AD000A8000020024B0146186800F09FB800BF14
:102AE0004400002082B001B901A942B14BB1137872
:102AF0000B601278101C18BF012002B070471046FE
:102B0000FBE76FF00100F8E730B50024A24201D1E5
:102B1000002007E0035D01340D1915F8015CAB429C
:102B2000F4D0581B30BD10B5431E0A44914200D169
:102B300010BD11F8014B03F8014FF7E7884210B5BB
:102B400001EB020307D8421E99420AD011F8014B4B
:102B500002F8014FF8E78342F5D98118D21AD3421F
:102B600000D110BD13F8014D01F8014DF7E7024403
:102B70000346934200D1704703F8011BF9E70000B8
:102B800038B50546002945D051F8043C0C1F002BF0
:102B9000B8BFE41800F086FD1F4A1368104633B929
:102BA000636014602846BDE8384000F07CBDA34255
:102BB0000CD921686218934204BF1A685B6863608D
:102BC00004BF521822600460ECE713465A680AB149
:102BD000A242FAD919685818A0420BD120680144C2
:102BE000581882421960DDD1106852685A60014459
:102BF0001960D7E702D90C232B60D3E7206821188E
:102C00008A4204BF11685268626004BF09182160DB
:102C10005C60C7E738BD00BF6C0E002070B5CD1CEE
:102C200025F0030508350C2D38BF0C25002D064670
:102C300001DBA94203D90C233360002070BD00F0F2
:102C400031FD214A1468214691B9204C23681BB9F3
:102C5000304600F0B9F820602946304600F0B4F85C
:102C6000431C24D10C233360304600F01CFDE4E704
:102C70000B685B1B18D40B2B0FD90B60CD50CC18F5
:102C8000304600F010FD04F10B00231D20F007007A
:102C9000C31AD3D05A42E250D0E78C424B6816BFD9
:102CA000636013600C46EBE70C464968CCE7C41C34
:102CB00024F00304A04205D0211A304600F084F825
:102CC0000130CFD02560DBE76C0E0020700E0020B5
:102CD0000FB40A4B13B51C6824B1A36913B920467D
:102CE00000F0E0FB05AB049AA1680193204601F0D7
:102CF00001F802B0BDE8104004B070474400002065
:102D000070B50E46054618B183690BB900F0CAFBD1
:102D1000AB69AC6813B9284600F0C4FB234B9C4256
:102D200017D16C68A3891B071DD52369DBB1013E50
:102D3000A36816F8011F013BA360E9B9002B2EDA46
:102D400022460A21284600F0CDF9013011D00A2090
:102D500011E0174B9C4201D1AC68E3E7154B9C4254
:102D600008BFEC68DEE72146284600F02DFA00286F
:102D7000DDD04FF0FF3070BD002B04DAA2699A421B
:102D800006DC0A2904D023685A1C22601970CFE798
:102D90002246284600F0A6F90130C9D1E9E72368A8
:102DA0000A205A1C22601870E5E700BF604F000837
:102DB000804F0008404F0008024B01461868FFF79B
:102DC0009FBF00BF4400002038B5064C00230546D5
:102DD0000846236001F08CFD431C02D1236803B137
:102DE0002B6038BDFC0E00200CB430B5174B0C1E08
:102DF0009DB01D6808DA8B232B604FF0FF301DB0AB
:102E0000BDE8304002B070474FF40273ADF81430A3
:102E100014BF04F1FF332346049307934FF6FF7367
:102E200002900690ADF81630209A21AB02A92846F0
:102E3000019300F093FC431CBCBF8B232B60002C40
:102E4000DDD0029B00221A70D9E700BF44000020A9
:102E50000EB430B59CB01FAC4FF4017254F8045B53
:102E6000ADF8142002900690FDF7C4F90B4B0390C7
:102E700007900B930A48019400230F9314934FF685
:102E8000FF73ADF816302A46234602A9006800F009
:102E9000B7FD1CB0BDE8304003B07047C72E000836
:102EA0004400002010B50C46B1F90E1001F018FBDB
:102EB0000028ABBF636DA3891B1823F48053ACBFFC
:102EC0006365A38110BD002070472DE9F0411F46C6
:102ED0008B89DB0505460C46164605D502230022E4
:102EE000B1F90E1000F068FBA389B4F90E1023F4B9
:102EF0008053A38132463B462846BDE8F04100F0AE
:102F000051B910B50C46B1F90E1000F055FB431C39
:102F1000A38915BF606523F4805343F48053A381D4
:102F200018BFA38110BDB1F90E1000F0BBB9F8B500
:102F300006460F4616F8014BFFF7BEFD204417F872
:102F4000015B437803F00303012B08BF2034FFF734
:102F5000B3FD2844427802F00302012A08BF20355D
:102F6000601B01D1002DE5D1F8BDC9B2034610F8B0
:102F7000012B1AB18A42F9D118467047002918BFAF
:102F80000023F9E710B56AB10139841810F8013B44
:102F900011F8012F934203D1A04201D0002BF5D1AB
:102FA000981A10BD1046FCE7094B70B51C68054621
:102FB0000E4624B1A36913B9204600F073FA3346D4
:102FC0002A46A1682046BDE8704000F093BE00BFCD
:102FD0004400002030B5141E05469BB0184605DAA3
:102FE0008B232B604FF0FF301BB030BD4FF40273CA
:102FF000ADF80C3014BF04F1FF3323460293059360
:103000004FF6FF7300910491ADF80E3002461E9BFF
:103010006946284600F0A2FB431CBCBF8B232B60F3
:10302000002CE1D0009B00221A70DDE707B5009369
:1030300013460A46014603480068FFF7CBFF03B07A
:103040005DF804FB4400002000B59BB000910491A2
:103050006FF000410591029105490391694600F026
:103060007DFB009B00221A701BB05DF804FB00BFC3
:103070000802FFFF13460A46014602480068FFF7B0
:10308000E3BF00BF4400002070B59AB004461E465E
:1030900008464FF401731546ADF80C3000910491C9
:1030A000FDF7A8F8094B099300214FF6FF73019033
:1030B00005900D911291ADF80E302A4633466946BF
:1030C000204600F09DFC1AB070BD00BFC72E00085E
:1030D00013460A46014602480068FFF7D5BF00BF05
:1030E00044000020F8B50E461446054618B1836921
:1030F0000BB900F0D7F9214B9C422AD16C68A36927
:10310000A360A3891A072ED5236963B323692068B6
:10311000C01A6369F6B28342374604DC214628466A
:1031200000F056F928BBA368013BA36023685A1C32
:1031300022601E7063690130834204D0A389DB07DB
:1031400019D50A2E17D12146284600F041F990B131
:103150000FE00B4B9C4201D1AC68D0E7094B9C427D
:1031600008BFEC68CBE72146284600F02DF8002880
:10317000CCD04FF0FF373846F8BD00BF604F000895
:10318000804F0008404F000849B1FF2A85BF8A23BD
:1031900003600A704FF0FF3098BF01207047084667
:1031A0007047000038B5074C054608461146002216
:1031B00022601A46FEF7F8FC431C02D1236803B1D3
:1031C0002B6038BDFC0E0020324B70B51D680646E2
:1031D0000C4625B1AB6913B9284600F063F92E4BB4
:1031E0009C420FD16C68B4F90C309AB215072CD4FC
:1031F000D00611D40922326043F04003A3814FF07E
:10320000FF303EE0254B9C4201D1AC68EBE7244BFC
:103210009C4208BFEC68E6E7510712D5616B41B1EB
:1032200004F14403994202D03046FFF7A9FC002381
:103230006363A38923F02403A381002363602369CC
:103240002360A38943F00803A38123694BB9A389B1
:1032500003F42073B3F5007F03D02146304600F01D
:10326000E1F9A28912F001030CD00023A360636985
:103270005B42A361236953B9B4F90C3013F08000A9
:10328000BAD170BD920758BF6369A360F2E700200E
:10329000F7E700BF44000020604F0008804F00089F
:1032A000404F000838B5064C002305460846236009
:1032B00001F0FEFA431C02D1236803B12B6038BD34
:1032C000FC0E00208A892DE9F041054610070C46C6
:1032D00058D44B68002B05DC0B6C002B02DC002063
:1032E000BDE8F081E66A002EF9D0002312F4805286
:1032F0002F68216A2B6032D0606DA3895A0705D5EB
:103300006368C01A636B0BB1236CC01A00230246BA
:10331000E66A216A2846B047431CA38906D129687A
:103320001D2948D8294ACA40D60744D500226260E0
:10333000D9042269226004D5421C01D12B6803B94B
:103340006065616B2F600029C9D004F14403994284
:1033500002D02846FFF714FC00206063C0E7012379
:103360002846B047411CC8D12B68002BC5D01D2B67
:1033700001D0162B01D12F60B1E7A38943F04003A0
:10338000A381ADE70F69002FA9D093070E6808BF8E
:103390004B690F6018BF0023A6EB07088B60B8F1DC
:1033A000000F9CDD43463A46216AA66A2846B0478C
:1033B000002806DCA38943F04003A3814FF0FF30CF
:1033C0008EE70744A8EB0008E9E700BF01004020B2
:1033D00038B50B6905460C46DBB118B183690BB9EA
:1033E00000F060F80C4B9C4209D16C68B4F90C30C9
:1033F0007BB121462846BDE83840FFF763BF074B45
:103400009C4201D1AC68F1E7054B9C4208BFEC68D7
:10341000ECE7002038BD00BF604F0008804F000877
:10342000404F0008002310B50446C0E90033836014
:1034300081814366C281C0E9043383611946082251
:103440005C30FFF794FB054B6362054BA362054BB1
:10345000E362054B2462236310BD00BFA52E000864
:10346000CB2E0008032F0008272F0008014900F089
:1034700085B800BFD133000870B54A1E6825554392
:103480000E4605F17401FFF7C9FB044640B1002167
:10349000C0E900160C30A06005F16802FFF767FB79
:1034A000204670BD836910B5044633BBC0E91233B2
:1034B0000365124B124A1B688262984204BF0123C3
:1034C000836100F01FF86060204600F01BF8A060E8
:1034D000204600F017F80022E06004216068FFF742
:1034E000A1FF01220921A068FFF79CFF02221221FF
:1034F000E068FFF797FF0123A36110BD304E00087D
:103500006D340008F8B51B4B1E68B369074613B944
:103510003046FFF7C7FF4836D6E90134013B03D5F3
:10352000336833B13668F7E7B4F90C506DB16834DD
:10353000F4E704213846FFF79FFF30600028F1D1FF
:103540000C233B6004462046F8BD0B4B6566C4E97E
:103550000055A560C4E90335C4E90555082229468C
:1035600004F15C00FFF703FBC4E90D55C4E91255F3
:10357000E9E700BF304E00080100FFFF2DE9F843E6
:103580008046894600F14804002614B93046BDE85B
:10359000F883D4E90175013F01D52468F5E7AB89CB
:1035A000012B07D9B5F90E30013303D02946404627
:1035B000C84706436835EEE738B5074C0546084668
:1035C0001146002222601A4601F08AF9431C02D1FA
:1035D000236803B12B6038BDFC0E002070B50E4689
:1035E000B1F90E10002996B014461D4607DA0023E3
:1035F0002B60B3891A0610D44FF480630EE06A463C
:1036000001F006F90028F2DB019A02F47042A2F5FB
:1036100000535A425A412A60EEE7402300202360BB
:1036200016B070BD8B8973B59D0706460C4607D54D
:1036300004F14703236023610123636102B070BD7D
:1036400001AB6A46FFF7CAFF009905463046FFF70F
:10365000E5FA48B9B4F90C309A05EFD423F0030326
:1036600043F00203A381E3E70D4BB362A38920601B
:1036700043F08003A381009B6361019B20615BB1E8
:10368000B4F90E10304601F0D5F828B1A38923F023
:10369000030343F00103A381A3891D43A581CDE763
:1036A0006D340008704770472DE9F0478E689E42E0
:1036B00082460C469046994637D88A8912F4906F14
:1036C00031D0256809696F1A6569022305EB450544
:1036D00095FBF3F509F101033B449D4238BF1D46BC
:1036E000530530D52946FFF799FA064650B90C2301
:1036F000CAF80030A38943F04003A3814FF0FF30A4
:10370000BDE8F0873A462169FFF70DFAA38923F453
:10371000906343F08003A381266165613E44ED1B05
:103720002660A5604E464E4500D94E46324641467B
:103730002068FFF703FAA3689B1BA36023681E445D
:1037400026600020DCE72A4601F084F806460028BF
:10375000E2D121695046FFF713FAC8E72DE9F04F8F
:103760001D468B891F069DB080460C4616460FD518
:103770000B696BB94021FFF751FA2060206128B92D
:103780000C23C8F800304FF0FF30C8E040236361DD
:103790000023099320238DF8293030238DF82A3017
:1037A00003954FF0010B37463D4615F8013B0BB131
:1037B000252B3ED1B7EB060A0BD0534632462146A5
:1037C0004046FFF771FF013000F0A480099B53448D
:1037D00009933B78002B00F09D8000234FF0FF32CF
:1037E000CDE90523049307938DF853301A932F46A0
:1037F000052217F8011B5048FCF70AFD049BD0B9BD
:10380000D90644BF20228DF853201A0744BF2B222B
:103810008DF853202A782A2A15D0079A2F4600209F
:103820000A25394611F8013B303B092B4DD9B8B177
:103830000FE02F46B8E7404A801A0BFA00F0184311
:1038400004903D46D3E7039A111D12680391002AA4
:1038500001DB079204E0524243F002030792049313
:103860003B782E2B0CD17B782A2B33D1039B1A1D4E
:103870001B680392002BB8BF4FF0FF33023705934C
:103880002E4D397803222846FCF7C2FC38B140237C
:10389000401B03FA00F0049B03430137049339787B
:1038A00027488DF8281006227E1CFCF7B1FC002862
:1038B00038D0244B13BB039B073323F00703083393
:1038C0000393099B4B4409936DE705FB02320120EA
:1038D0000F46A6E700230137059319460A25384607
:1038E00010F8012B303A092A03D9002BC8D00591D2
:1038F000C6E705FB012101230746F0E703AB009370
:103900002246114B04A94046AFF30080B0F1FF3FBF
:103910008146D6D1A3895B063FF535AF09981DB026
:10392000BDE8F08F03AB00932246074B04A9404645
:1039300000F06CFBEAE700BFA04F0008A64F0008AC
:10394000AA4F000800000000A936000838B54B1C3B
:10395000144603D14FF0FF35284638BD938923F034
:1039600020039381636B5268CDB28BB1A36B9342FA
:1039700008DD23685A1E226003F8015C6368013386
:103980006360E9E7214600F009FF0028F1D0E1E794
:103990002169236851B1994208D213F8011CA94248
:1039A00004D1013B013223606260D5E7C4E90F32E4
:1039B00004F1440363630323A363234603F8465FD0
:1039C00023600123DCE710B50C46496B69B104F1B3
:1039D0004403994201D0FFF7D3F8236C63600020C1
:1039E000606313B1E36B236010BD23692360002380
:1039F0006360A38943F02003A3814FF0FF30F3E716
:103A00002DE9F04FADF5237D0C4600214491459101
:103A10009F49A0910DF104089E49DFF87C92CDF8F2
:103A2000188106469246A19100930A279AF8003021
:103A3000002B00F02A815546FFF73EF815F801BB30
:103A40005844437813F008031CD06368002B12DD40
:103A5000FFF732F823681A7810444278120701D42D
:103A6000AA46E3E7459A0132459262680133013A7A
:103A700062602360E9E7A19B214630469847002811
:103A8000E6D0EDE7BBF1250F40F0828043934193F0
:103A90009AF801302A2B03D1102341930AF1020531
:103AA000AA4615F8011BA1F13002092A22D90322E6
:103AB0007948FCF7ADFB38B1A0EB09030120984031
:103AC000419B18434190AA469AF80030672B0AF1AF
:103AD00001052BD8652B80F09F80472B10D8452BF4
:103AE00080F09A80002B6CD0252B51D00323479374
:103AF000429727E0439B07FB0313303B4393CFE7F9
:103B00005B2B6AD00CD8582BF0D1419A42F400724A
:103B10004192102242926E2B8CBF0423032310E0AB
:103B2000632B65D0642BE1D14297F4E7702B4BD027
:103B300026D86E2B62D04CD8692BD7D10023429364
:103B4000032347936368002B68DD419B590607D424
:103B5000FEF7B2FF23681A7810444278120764D443
:103B6000479B022B73DC6B46224641A9304600F08E
:103B70005FFB012800F0898002287FF471AF1DE00F
:103B8000752BD1D0782BC0D0732BAFD10223D8E7BF
:103B90006368002B0CDD23681A785A4575D1013310
:103BA00062682360459B013A01336260459357E7A1
:103BB000A19B2146304698470028ECD04498002825
:103BC00059D14FF0FF305CE0419A42F0200241921F
:103BD0009BE7082342930423B3E72946404600F0BD
:103BE00091FC419B43F04003419305460123A8E724
:103BF000419B43F0400341930023A2E74198C30651
:103C00003FF52EAF009B459A191D00911B68C00718
:103C10004CBF1A801A6023E7052392E7A19B214637
:103C200030469847002890D0C8E7459A013245921F
:103C30006268013A002A626002DD0133236087E78F
:103C4000A19B214630469847002881D0B6E7042B37
:103C500006DC6B46224641A9304600F04DFB88E762
:103C60000E4B002B3FF4FCAE6B46224641A930467A
:103C7000AFF300807DE7A38913F0400F18BF4FF02A
:103C8000FF300DF5237DBDE8F08F4498F9E700BFC4
:103C90004D390008C7390008A64F00080000000091
:103CA0009368013B002B10B4936008DA9469A34237
:103CB00001DB0A2903D15DF8044BFFF713BA13683F
:103CC000581C1060197008465DF8044B7047F8B531
:103CD00006460F461446D518AC4201D1002007E035
:103CE0003A4614F8011B3046FFF7DAFF431CF3D1C4
:103CF000F8BD00002DE9F04F0C469DB017461D465B
:103D0000064618B183690BB9FFF7CCFB7C4B9C428C
:103D100058D17468A38918075ED52369002B5BD03E
:103D20000023099320238DF8293030238DF82A3081
:103D300003954FF0010BB846454615F8013B0BB112
:103D4000252B54D1B8EB070A0BD053463A462146EF
:103D50003046FFF7BCFF013000F0C280099B53449E
:103D6000099398F80030002B00F0BA8000234FF040
:103D7000FF32CDE90523049307938DF853301A934E
:103D8000A846052218F8011B5E48FCF741FA049B7F
:103D900078BBD90644BF20228DF853201A0744BFB0
:103DA0002B228DF853202A782A2A2AD0079AA8464F
:103DB00000200A25414611F8013B303B092B69D907
:103DC00060B324E0504B9C4201D1B468A2E74F4B52
:103DD0009C4208BFF4689DE721463046FFF7F4F99E
:103DE00000289DD04FF0FF301DB0BDE8F08FA846F1
:103DF000A2E7444A801A0BFA00F0184304904546A3
:103E0000BEE7039A111D12680391002A01DB079295
:103E100004E0524243F002030792049398F8003002
:103E20002E2B0ED198F801302A2B38D1039B1A1D66
:103E30001B680392002BB8BF4FF0FF3308F1020854
:103E40000593334D98F8001003222846FCF7E0F95B
:103E500040B14023401B03FA00F0049B034308F1E8
:103E60000108049398F800102A488DF828100622BB
:103E700008F10107FCF7CCF9002837D0264B1BBB13
:103E8000039B073323F0070308330393099B4B4439
:103E9000099350E705FB0232012088468AE7002398
:103EA00008F10108059319460A25404610F8012B30
:103EB000303A092A03D9002BC3D00591C1E705FB8D
:103EC000012101238046F0E703AB00932246134B08
:103ED00004A93046AFF30080B0F1FF3F8146D5D151
:103EE000A3895B063FF57EAF09987DE703AB00939E
:103EF00022460A4B04A9304600F088F8ECE700BFE0
:103F0000604F0008A04F0008804F0008404F000895
:103F1000A64F0008AA4F000800000000CF3C000890
:103F20002DE9F04791461F468A680B69DDF820802D
:103F30009342B8BF1346C9F8003091F843200646B3
:103F40000C4612B10133C9F800302368990642BF0C
:103F5000D9F800300233C9F80030256815F006059D
:103F600007D104F1190AE368D9F800209B1AAB4283
:103F700028DC94F843302268003318BF01239206EE
:103F80002DD404F1430239463046C047013020D0D9
:103F90002368E568D9F8002003F00603042B08BF66
:103FA000AD1AA36822690CBF25EAE5750025934286
:103FB000C4BF9B1AED184FF000091A344D451AD1B1
:103FC000002008E00123524639463046C047013000
:103FD00003D14FF0FF30BDE8F0870135C3E7E118AA
:103FE0005A1C302081F84300224494F8451082F88E
:103FF00043100233C5E70123224639463046C04705
:104000000130E6D009F10109D8E700002DE9F043BD
:1040100001F1430C0C46097E85B06E291746064611
:1040200098460C9A00F0B38022D8632936D00AD87B
:10403000002900F0B980582900F0838004F142057E
:1040400084F8421032E0642901D06929F6D1206851
:104050001368050603F104012AD51B681160002BC3
:1040600003DA2D225B4284F843206F480A2239E0AC
:10407000732900F09D8008D86F2920D07029DDD1E8
:10408000236843F02003236003E0752917D07829C3
:10409000D4D1782384F84530644855E01368191D5D
:1040A0001B68116004F1420584F8423001238CE062
:1040B0001B68116010F0400F18BF1BB2CFE71368E8
:1040C0002568181D1060280601D51B6802E06806E7
:1040D000FBD51B8854486F2914BF0A2208220021EF
:1040E00084F843106568A560002DC0F295802168B2
:1040F00021F004012160002B3DD1002D40F08E8085
:104100006546082A0BD12368DB0708D52369626856
:104110009A42DEBF302305F8013C05F1FF35ACEBD8
:1041200005032361CDF800803B4603AA21463046B3
:10413000FFF7F6FE01304DD14FF0FF3005B0BDE87E
:10414000F083394884F84510136821681D1D1B68E9
:1041500015600A060BD5CA0744BF41F02001216053
:104160001BB9226822F0200222601022B7E74D0618
:1041700048BF9BB2EFE76546B3FBF2F102FB113398
:10418000C35C05F8013D0B460029F5D1B9E713687A
:1041900025686169181D106028061B6801D5196023
:1041A00002E06A06FBD51980002323616546B9E762
:1041B0001368191D11601D68626800212846FCF70C
:1041C00027F808B1401B606063682361002384F80E
:1041D0004330A7E723692A4639463046C0470130B5
:1041E000AAD023689B0713D4E068039B9842B8BF0A
:1041F0001846A3E701234A4639463046C0470130F6
:104200009AD00135E368039A9B1AAB42F2DCEBE7E4
:10421000002504F11909F5E7002BACD1037884F8E7
:10422000423004F142056CE7B14F0008C24F00086C
:104230002DE9F04115468A6880460C4632B98A69F4
:10424000002A14BF4FF0FF3201228A602268D10693
:104250005FBF1A68111D196017680026A369DBB1DA
:10426000012B07D12B6862691B78D35CA3B9002EA0
:1042700032D106E0022B07D0002E2DD1A369012BED
:104280002AD10120BDE8F081FEF716FC2B681B78CF
:10429000184443781B07EFD42368DA065EBF2B6807
:1042A0001B783B702A686B6802F101022A60A268E1
:1042B00003F1FF3302F1FF326B6006F1010658BFD4
:1042C0000137A26042B1002BC8DCD4F88031294606
:1042D000404698470028C1D0236813F0100305D149
:1042E000E2680132E260A26902B13B7023691E44B8
:1042F00026610020C6E700002DE9F04F9A46744B76
:104300000C468346164693E8070087B003ABA768C0
:1043100083E807006F4BA1696F4A032908BF1A465B
:104320007B1EB3F5AE7F84BF40F25D13A3602368AC
:10433000009243F4506388BF6FF4AE7504F11C091A
:1043400023608CBF7F1900274B464FF00008019374
:10435000316803AB022253F828000978FBF758FFB5
:10436000019B30B3B8F1010F5AD162682AB92268B3
:10437000082142F4007261602260226822F4A06287
:104380002260A268511EA1609AB13268511C31604E
:1043900012781A705D1C7368013B002B736007DC98
:1043A000D4F88031314658469847002840F086803E
:1043B0002B4608F10108B8F1030FC8D162680AB9A9
:1043C0000A2262606268454960690193891A00F0B7
:1043D00099F8019B4FF000081D46A3682268002B46
:1043E0003AD03168606991F800C010F80C000028DC
:1043F00032D0BCF1300F21D110051FD508F10108D2
:1044000017B10133013FA3607368013B002B736058
:104410001BDD336801333360A368013BA360DCE735
:10442000B8F1020FADD1226802F4C061B1F5007F8E
:10443000BFD11021616042F48072A1E722F41062C2
:1044400022600B782B700135DEE7D4F880313146DD
:10445000584698470028DFD02368D9050CD54D452C
:1044600008D915F8011CD4F87C31324658469847D3
:104470006F1E3D464D4529D0226812F0100213D11F
:104480002A706368009E49465846B047DAF8003003
:1044900021681A1DCAF8002011F0200F1B6810D0E7
:1044A0001860E3680133E360A5EB0905A8442569BA
:1044B00045442561002007B0BDE8F08F4FF00008AB
:1044C000CAE7CA074CBF18801860EAE70120F2E784
:1044D000284900086146000879470008E34F0008B2
:1044E00038B5074C054608461146002222601A4698
:1044F000FDF748FB431C02D1236803B12B6038BD94
:10450000FC0E002070B50B785E2B13BF4A1C8A1C72
:104510004B78002108BF0121441E00F1FF0504F87B
:10452000011FAC42FBD113B9013A104670BD81F0B6
:104530000104C454511C11F8015C2D2D01F1FF360A
:104540000A4606D05D2DF0D00DB93246EDE72B4678
:10455000EFE70E785D2EFAD0B342F8DC01339E42CD
:10456000C454FBDC0231E6E72DE9F047804689467A
:1045700092461E460F463D46089815F8014BFEF739
:1045800097FA2044437813F0080332D12D2C32D10E
:104590007C78BD1C0122002E5DD0102E09D1302C5C
:1045A00007D12B7803F0DF03582B4FD16C781026FE
:1045B0000235002A14BF4FF000416FF00041002780
:1045C000B1FBF6FC384606FB1C1EA4F13003092B98
:1045D00017D81C46A64223DD7B1C07D084451CD37C
:1045E00001D1A64519DB00FB0640012715F8014B58
:1045F000EBE72F46BFE72B2C04BFBD1C7C781A4687
:10460000C9E7A4F14103192B01D8373CE2E7A4F133
:104610006103192B04D8573CDCE74FF0FF37E5E77F
:104620007B1C08D12223C8F800300846BAF1000FDD
:1046300007D1BDE8F08702B14042BAF1000FF8D0CF
:104640000FB105F1FF39CAF80090F2E73024002ECF
:10465000AFD10826ADE7302CA3D00A26A9E7000089
:1046600037B5064C064D2468246A002C08BF2C463A
:104670000094FFF779FF03B030BD00BF4400002075
:10468000A80000202DE9F0478046894692461E4644
:104690000F463D46089815F8014BFEF709FA2044ED
:1046A000437813F0080330D12D2C30D17C78BD1C19
:1046B0000121002E5CD0102E09D1302C07D12B788F
:1046C00003F0DF03582B4ED16C78102602354FF0E3
:1046D000FF320023B2FBF6F206FB02FC6FEA0C0C81
:1046E0001846A4F13007092F17D83C46A64223DD0F
:1046F000002B1EDB82421CD301D1A44519DB00FB39
:104700000640012315F8014BEBE72F46C1E72B2CA0
:1047100004BFBD1C7C781946CBE7A4F14107192FD3
:1047200001D8373CE2E7A4F16107192F04D8573CC0
:10473000DCE74FF0FF33E5E7002B09DA2223C8F866
:1047400000304FF0FF30BAF1000F07D1BDE8F0871D
:1047500001B14042BAF1000FF8D00BB105F1FF39B9
:10476000CAF80090F2E73024002EB0D10826AEE758
:10477000302CA4D00A26AAE737B5064C064D24688B
:10478000246A002C08BF2C460094FFF77BFF03B07F
:1047900030BD00BF44000020A80000202DE9F041FA
:1047A0000C46496B04F1440399421DD14FF48061DA
:1047B000FEF734FA18B94FF0FF30BDE8F0814FF43E
:1047C0008063A36394F84630606380F8FF3394F805
:1047D000453080F8FE3394F8443080F8FD3300F221
:1047E000FD3020600020E8E7A66B77003A4600F035
:1047F00031F805460028DED000EB060801463246B7
:104800004046FEF790F9C4F80080C4E90D57E9E787
:1048100038B5074C0023054608461146236000F0D2
:104820004FF8431C02D1236803B12B6038BD00BF91
:10483000FC0E002038B5064C0023054608462360D0
:1048400000F046F8431C02D1236803B12B6038BD49
:10485000FC0E0020F8B5074614460E4621B9114655
:10486000BDE8F840FEF7DAB922B9FEF789F9254626
:104870002846F8BD00F014F8A0420FD22146384671
:10488000FEF7CCF905460028F2D031462246FEF765
:104890004AF931463846FEF773F9E9E73546E7E766
:1048A00051F8043C181F002BBCBF0B58C0187047B0
:1048B000024B58221A604FF0FF307047FC0E002068
:1048C000024B58221A604FF0FF307047FC0E002058
:1048D000024B58221A600020704700BFFC0E0020D7
:1048E000024B58221A604FF0FF307047FC0E002038
:1048F000044A05491368002B08BF0B461844106092
:1049000018467047740E0020000F0020F8B500BF55
:10491000F8BC08BC9E467047F8B500BFF8BC08BCA0
:044920009E467047F8
:1049240000000000E54F0008E84F0008EB4F0008C6
:10493400506C6174666F726D2F53544D333246342C
:1049440078782F6D61696E2E63000000000000000E
:10495400000000000102030406070809000000002B
:10496400010203046D785F68616C5F73657269614D
:104974006C5F696E69740000506C6174666F726D6F
:104984002F53544D3332463478782F7065726970E2
:10499400686572616C732F6D785F73657269616CA1
:1049A4002E6300005B4D583A25733A25733A25343B
:1049B400645D202A2A4153534552542A2A202573E0
:1049C4000D0A00006D785F68616C5F737464696FD1
:1049D4005F696E6974000000506C6174666F726D7B
:1049E4002F53544D3332463478782F706572697082
:1049F400686572616C732F6D785F737464696F2E70
:104A040063000000506C6174666F726D2F53544DD7
:104A14003332463478782F706572697068657261D4
:104A24006C732F6D785F756172742E6300000000E3
:104A3400784B000800000000451C0008804B00086B
:104A440000000000E51C0008636C69206572720DAB
:104A540000000000657869740000000073796E74CA
:104A64006178206572726F720D0A00004469736187
:104A7400626C656400000000456E61626C656400F0
:104A840055736167653A6563686F206F6E2F6F6653
:104A9400662E204563686F206973206375727265A2
:104AA4006E746C792025730D0A0000006F6E00008F
:104AB400456E61626C65206563686F0D0A000000D5
:104AC4006F66660044697361626C65206563686F34
:104AD4000D0A000025632563000000004572726F13
:104AE400723A696E70757420627566666572206FBD
:104AF400766572666C6F770D0A000000203D3D3DBF
:104B04003D204275696C64202D20696E20436F6DD1
:104B14006D616E6473203D3D3D3D200D0A00000033
:104B24002025733A2025730D0A0000000D0A203D4C
:104B34003D3D3D205573657220436F6D6D616E641C
:104B440073203D3D3D3D200D0A000000636F6D6DF7
:104B5400616E642027000000256300005C30782526
:104B64007800000027206E6F7420666F756E640DE8
:104B74000A00000068656C70000000006563686FDF
:104B84000000000020252073202520732000000051
:104B94000D0A232000000000202520732025207307
:104BA400000000004154212025730D0A000000007C
:104BB40041543C2025732C2025640D0A000000007C
:104BC40041543F2025730A0041542854696D656F90
:104BD4007574290A000000004154212025730A003D
:104BE40025733D3D3D3D3D25732C2025642C2564D6
:104BF4000D0A000041543D2025730A0041543C2015
:104C04002573000041543E2025730A005354415437
:104C1400494F4E5F55500000434F4E4E4543544953
:104C24004E47000041505F555000000041505F4422
:104C34004F574E0053544154494F4E5F444F574EC3
:104C4400000000000D0000002B574556454E543A15
:104C54000000000041542B46575645523F000000C7
:104C64002B46575645523A2533325B5E0D5D0D0A8D
:104C74004F4B0D0A0000000041542B535953544923
:104C84004D453F002B53595354494D453A25640D26
:104C94000A4F4B0D0A00000041542B5245424F4F1E
:104CA400540000004154000041542B5541525445D6
:104CB4003D4F464600000000656D685F776C616E8D
:104CC4005F6576656E745F68616E646C6572000022
:104CD400253130305B5E0D5D0D0A00007372632F69
:104CE40068656C7065722F656D686F73742F656D80
:104CF400685F776C616E2E630000000072696E67F6
:104D04006275666665725F696E69740072696E6762
:104D14006275666665725F676574000072696E67C6
:104D24006275666665725F70757400007372632FD6
:104D340068656C7065722F6D785F7574696C732F1C
:104D44006D785F72696E676275666665722E630060
:104D540068656C6C6F20776F726C6400252A730D24
:104D64000A256E004F4B0D0A4F4B00007465737497
:104D7400203120737363616E662025640D0A000080
:104D8400252A7325730000004F4B0D0A58585858B4
:104D9400584F4B0074657374203220737363616ED3
:104DA400662025730D0A00004578616D706C652FCF
:104DB40061745F746573742F61745F746573742EAA
:104DC40063000000415050005B25733A2025733A7C
:104DD4002534645D20656D6820696E697420657290
:104DE40072203D2025640D0A000000005B25733A03
:104DF4002025733A2534645D204657207665727306
:104E0400696F6E3A2025730D0A0000005B25733A22
:104E14002025733A2534645D2053797374656D20BD
:104E24007469636B3A2025640D0A00004800002071
:104E34004300504F534958002E00002020202020CA
:104E44002020202028282828282020202020202036
:104E54002020202020202020202020881010101026
:104E6400101010101010101010101004040404047A
:104E740004040404041010101010101041414141A6
:104E8400414101010101010101010101010101018E
:104E940001010101010110101010101042424242A0
:104EA400424202020202020202020202020202025E
:104EB4000202020202021010101020000000000082
:104EC40000000000000000000000000000000000DE
:104ED40000000000000000000000000000000000CE
:104EE40000000000000000000000000000000000BE
:104EF40000000000000000000000000000000000AE
:104F0400000000000000000000000000000000009D
:104F1400000000000000000000000000000000008D
:104F2400000000000000000000000000000000007D
:104F3400000000000000000000000000000000006D
:104F4400000000000000000000000000000000005D
:104F5400000000000000000000000000000000004D
:104F6400000000000000000000000000000000003D
:104F7400000000000000000000000000000000002D
:104F8400000000000000000000000000000000001D
:104F9400000000000000000000000000232D302B62
:104FA4002000686C4C006566674546470030313226
:104FB400333435363738394142434445460030317D
:104FC400323334353637383961626364656600419B
:104FD4002D46612D66383930313233343536375DFC
:0C4FE400002B2D00303000785800000039
:084FF000F0B2FF7F0100000098
:044FF800C5010008E7
:044FFC00A101000807
:105000000024F40001000000100000006400000013
:105010000000000000C201000300000002000000C8
:105020000100000000C201000300000002000000B7
:10503000284C0008304C0008104C0008384C000880
:10504000244900084800002000000000604F0008CC
:10505000804F0008404F00080000000000000000E2
:105060000000000000000000000000000000000040
:105070000000000000000000000000000000000030
:105080000000000000000000000000000000000020
:105090000000000000000000000000000000000010
:1050A00000000000000000004300000000000000BD
:1050B00000000000000000000000000000000000F0
:1050C000000000000000000043000000000000009D
:1050D00000000000000000000000000000000000D0
:1050E000000000000000000043000000000000007D
:1050F00000000000000000000000000000000000B0
:10510000000000000000000043000000000000005C
:10511000000000000000000000000000000000008F
:10512000000000000000000043000000000000003C
:10513000000000000000000000000000000000006F
:10514000000000000000000043000000000000001C
:10515000000000000000000000000000000000004F
:1051600000000000000000004300000000000000FC
:10517000000000000000000000000000000000002F
:10518000000000000000000089310008E52A000846
:10519000000000003E4E00083C4E0008A54F0008ED
:1051A000A54F0008A54F0008A54F0008A54F00080F
:1051B000A54F0008A54F0008A54F0008A54F0008FF
:1051C000FFFFFFFFFFFFFFFFFFFFFFFFFFFF0000ED
:1051D0000100415343494900000000000000000065
:1051E00000000000000000000000000000000000BF
:1051F0000000415343494900000000000000000046
:10520000000000000000000000000000000000009E
:04521000000000009A
:0400000508002A15B0
:00000001FF
